:040000006FEF3FF06F
:107EDE000001BCEF3FF0016EACA278EF3FF07AEFFD
:107EEE003FF073EF3FF001C0ADFF1200AC84B896C7
:107EFE00010EB06E380EAF6EAC98AB8E948C948E25
:107F0E00AC9CAC8A1200000E046E000E036EA1EC47
:107F1E003FF0034A042A04BE9EEF3FF0045009E1ED
:107F2E00050E035CD8A09EEF3FF0A0EF3FF08EEF62
:107F3E003FF012008A88070E026E170E016E6A0E4F
:107F4E00E82EFED7012EFCD7022EFAD700D08A9843
:107F5E00070E026E170E016E6A0EE82EFED7012E68
:107F6E00FCD7022EFAD700D01200000E076E0C0EB0
:107F7E00936E7DEC3FF0070E066E170E056E6A0EC1
:107F8E00E82EFED7052EFCD7062EFAD700D081B4E8
:107F9E00D3EF3FF0D5EF3FF0F0EF3FF08A88075078
:107FAE00D8A4DCEF3FF0DEEF3FF0E2EF3FF0010E42
:107FBE00076EE4EF3FF0000E076E3D0E066EE10E0B
:107FCE00056E400EE82EFED7052EFCD7062EFAD7EC
:107FDE008A9881B6F5EF3FF0F7EF3FF0C2EF3FF032
:107FEE008AEC3FF0075072EC3FF0C2EF3FF000EF2B
:027FFE0000F091
:020000040020DA
:08000000FFFFFFFFFFFFFFFF00
:020000040030CA
:0E000000230E181EFF0181FF0FC00FE00F40FE
:00000001FF
