:0400000007EF00F016
:10000800068209ED00F069EF00F006009EAA0FEFE6
:1000180000F011EF00F028EF00F0AECF05F005502A
:10002800D8A419EF00F01BEF00F01EEF00F08A983B
:1000380027EF00F00504D8A424EF00F026EF00F025
:100048001BEF00F08A889E9A069211008A883D0E5E
:10005800026EE10E016E400EE82EFED7012EFCD78F
:10006800022EFAD78A983D0E026EE10E016E400EFE
:10007800E82EFED7012EFCD7022EFAD712002AEC62
:1000880000F093988A9859EC00F0070E046E170E4A
:10009800036E6A0EE82EFED7032EFCD7042EFAD77D
:1000A80000D049EF00F007EF00F0AC84B896AB9CA5
:1000B800010EB06E380EAF6EAC98AB8E948C948EE9
:1000C8009D8AF28CF28EAB881200056A0690069221
:0600D800000143EF00F0FF
:020000040020DA
:08000000FFFFFFFFFFFFFFFF00
:020000040030CA
:0E000000230E181EFF0181FF0FC00FE00F40FE
:00000001FF
