:04000000A7EF3FF037
:107F4E000001C2EF3FF0016EACA2B0EF3FF0B2EF16
:107F5E003FF0ABEF3FF001C0ADFF1200AC84B8961E
:107F6E00010EB06E380EAF6EAC98AB8E948C948EB4
:107F7E00AC9CAC8A1200000E056E9398938A938C7B
:107F8E00938EB5EC3FF0DFEC3FF0B70E046EA10E12
:107F9E00036EC40EE82EFED7032EFCD7042EFAD79E
:107FAE000550AAEC3FF0052ACAEF3FF000EF00F0B3
:107FBE008A888A8A8A8C8A8E1F0E026E710E016ED4
:107FCE001E0EE82EFED7012EFCD7022EFAD700D0B9
:107FDE008A988A9A8A9C8A9E1F0E026E710E016E74
:107FEE001E0EE82EFED7012EFCD7022EFAD700D099
:027FFE0012006F
:020000040020DA
:08000000FFFFFFFFFFFFFFFF00
:020000040030CA
:0E000000230E181EFF0181FF0FC00FE00F40FE
:00000001FF
